{
  "contractName": "Auction",
  "abi": [
    {
      "inputs": [
        {
          "name": "_sellerAddress",
          "type": "address"
        },
        {
          "name": "_judgeAddress",
          "type": "address"
        },
        {
          "name": "_timer",
          "type": "address"
        }
      ],
      "payable": false,
      "stateMutability": "nonpayable",
      "type": "constructor"
    },
    {
      "constant": false,
      "inputs": [],
      "name": "settle",
      "outputs": [],
      "payable": false,
      "stateMutability": "nonpayable",
      "type": "function"
    },
    {
      "constant": false,
      "inputs": [],
      "name": "refund",
      "outputs": [],
      "payable": false,
      "stateMutability": "nonpayable",
      "type": "function"
    },
    {
      "constant": true,
      "inputs": [],
      "name": "time",
      "outputs": [
        {
          "name": "",
          "type": "uint256"
        }
      ],
      "payable": false,
      "stateMutability": "view",
      "type": "function"
    },
    {
      "constant": false,
      "inputs": [],
      "name": "getHighestBidder",
      "outputs": [
        {
          "name": "",
          "type": "address"
        }
      ],
      "payable": false,
      "stateMutability": "nonpayable",
      "type": "function"
    }
  ],
  "bytecode": "0x608060405234801561001057600080fd5b506040516060806104e7833981018060405281019080805190602001909291908051906020019092919080519060200190929190505050806000806101000a81548173ffffffffffffffffffffffffffffffffffffffff021916908373ffffffffffffffffffffffffffffffffffffffff16021790555081600160006101000a81548173ffffffffffffffffffffffffffffffffffffffff021916908373ffffffffffffffffffffffffffffffffffffffff16021790555082600260006101000a81548173ffffffffffffffffffffffffffffffffffffffff021916908373ffffffffffffffffffffffffffffffffffffffff160217905550600073ffffffffffffffffffffffffffffffffffffffff16600260009054906101000a900473ffffffffffffffffffffffffffffffffffffffff1673ffffffffffffffffffffffffffffffffffffffff1614156101a25733600260006101000a81548173ffffffffffffffffffffffffffffffffffffffff021916908373ffffffffffffffffffffffffffffffffffffffff1602179055505b6000600360146101000a81548160ff021916908360028111156101c157fe5b021790555050505061030f806101d86000396000f300608060405260043610610061576000357c0100000000000000000000000000000000000000000000000000000000900463ffffffff1680623495a41461006657806311da60b4146100bd57806316ada547146100d4578063590e1ae3146100ff575b600080fd5b34801561007257600080fd5b5061007b610116565b604051808273ffffffffffffffffffffffffffffffffffffffff1673ffffffffffffffffffffffffffffffffffffffff16815260200191505060405180910390f35b3480156100c957600080fd5b506100d2610140565b005b3480156100e057600080fd5b506100e96101ae565b6040518082815260200191505060405180910390f35b34801561010b57600080fd5b50610114610275565b005b6000600360009054906101000a900473ffffffffffffffffffffffffffffffffffffffff16905090565b6040517f08c379a00000000000000000000000000000000000000000000000000000000081526004018080602001828103825260138152602001807f4e6f742079657420696d706c656d656e7465640000000000000000000000000081525060200191505060405180910390fd5b60008060009054906101000a900473ffffffffffffffffffffffffffffffffffffffff1673ffffffffffffffffffffffffffffffffffffffff1663557ed1ba6040518163ffffffff167c0100000000000000000000000000000000000000000000000000000000028152600401602060405180830381600087803b15801561023557600080fd5b505af1158015610249573d6000803e3d6000fd5b505050506040513d602081101561025f57600080fd5b8101908080519060200190929190505050905090565b6040517f08c379a00000000000000000000000000000000000000000000000000000000081526004018080602001828103825260138152602001807f4e6f742079657420696d706c656d656e7465640000000000000000000000000081525060200191505060405180910390fd00a165627a7a72305820466df581fa6069d609198587beecc5c1e4e0b29dc2ce574b20abe1dea3ab8c630029",
  "source": "pragma solidity ^0.4.24;\n\nimport \"./Timer.sol\";\n\n/// This contract represents abstract auction.\ncontract Auction {\n\n    /// Enum that shows the state of the auction.\n    enum Outcome {\n        NOT_FINISHED,\n        NOT_SUCCESSFUL,\n        SUCCESSFUL\n    }\n\n    /// Timer contract.\n    Timer private timer;\n\n    /// Address of a judge.\n    address private judgeAddress;\n\n    /// Address of seller.\n    address private sellerAddress;\n\n    /// Address of the highest bidder.\n    /// This should be set when the auction is over.\n    address internal highestBidderAddress;\n\n    /// Indicates auction outcome.\n    Outcome internal outcome;\n\n    constructor(\n        address _sellerAddress,\n        address _judgeAddress,\n        Timer _timer\n    ) public {\n        timer = _timer;\n        judgeAddress = _judgeAddress;\n        sellerAddress = _sellerAddress;\n        if (sellerAddress == address(0)) {\n            sellerAddress = msg.sender;\n        }\n        outcome = Outcome.NOT_FINISHED;\n    }\n\n    /// Internal function used to finish an auction.\n    /// Auction can finish in three different scenarios:\n    /// 1.) Somebody won the auction and seller has the rights to receive the\n    ///     funds to this contract.\n    /// 2.) Auction finished with a highest bidder, but for some reason the\n    ///     highest bidder does not have the right to claim the auction item\n    ///     (e.g. minimal item price is not reached).\n    /// 3.) Not one bid has been placed for an item.\n    ///\n    /// The values that should be used with this function call for each of\n    /// the cases are:\n    /// 1.) In the case of the first outcome, contract should call this method with\n    ///     _highestBidderAddress != address(0) and _outcome should be equal to\n    ///     Auction.Outcome.SUCCESSFUL.\n    /// 2.) In the case of the second outcome, contract should call this method\n    ///     with _outcome == AuctionOutcome.NOT_SUCCESSFUL and arbitrary value\n    ///     for the _highestBidderAddress parameter.\n    /// 3.) In the third case when not a single bid was placed, then this function\n    ///     should be called with _outcome == NOT_SUCCESSFUL and\n    ///     _highestBidderAddress should be equal to address(0).\n    ///\n    /// @param _outcome Outcome of the auction.\n    /// @param _highestBidder Address of the highest bidder or address(0) if auction did not finish successfully.\n    function finishAuction(Outcome _outcome, address _highestBidder) internal {\n        require(_outcome != Outcome.NOT_FINISHED); // This should not happen.\n        outcome = _outcome;\n        highestBidderAddress = _highestBidder;\n    }\n\n    /// Settles the auction and sends the funds to the auction seller.\n    /// This function can only be called when the auction has finished successfully.\n    /// If no judge is specified for an auction then anybody can request\n    /// the transfer of funds to the seller. If the judge is specified,\n    /// then only the judge or highest bidder can transfer the funds to the seller.\n    function settle() public {\n        // TODO Your code here\n        revert(\"Not yet implemented\");\n    }\n\n    // Returns the money to the highest bidder only in the case of unsuccessful\n    // auction outcome. If the judge is specified then only the judge or\n    // the seller can return the money to the highest bidder. If no judge is\n    // specified then anybody should be able to request the transfer of funds\n    // to the highest bidder (if such exists).\n    function refund() public {\n        // TODO Your code here\n        revert(\"Not yet implemented\");\n    }\n\n    // This is provided for testing\n    // You should use this instead of block.number directly\n    // You should not modify this function.\n    function time() public view returns (uint) {\n        return timer.getTime();\n    }\n\n    /// Function that returns highest bidder address or address(0) if\n    /// auction is not yet over.\n    function getHighestBidder() public returns (address) {\n        return highestBidderAddress;\n    }\n}\n",
  "sourcePath": "/Users/debugginator/IdeaProjects/kriptovalute/nix-lab2/contracts/Auction.sol",
  "compiler": {
    "name": "solc",
    "version": "0.4.26+commit.4563c3fc.Emscripten.clang"
  },
  "schemaVersion": "2.0.3",
  "updatedAt": "2019-12-15T15:55:53.878Z"
}