{
  "contractName": "Crowdfunding",
  "abi": [
    {
      "constant": true,
      "inputs": [],
      "name": "goal",
      "outputs": [
        {
          "name": "",
          "type": "uint256"
        }
      ],
      "payable": false,
      "stateMutability": "view",
      "type": "function"
    },
    {
      "constant": true,
      "inputs": [
        {
          "name": "",
          "type": "address"
        }
      ],
      "name": "investments",
      "outputs": [
        {
          "name": "",
          "type": "uint256"
        }
      ],
      "payable": false,
      "stateMutability": "view",
      "type": "function"
    },
    {
      "constant": true,
      "inputs": [],
      "name": "endTimestamp",
      "outputs": [
        {
          "name": "",
          "type": "uint256"
        }
      ],
      "payable": false,
      "stateMutability": "view",
      "type": "function"
    },
    {
      "inputs": [
        {
          "name": "_owner",
          "type": "address"
        },
        {
          "name": "_timer",
          "type": "address"
        },
        {
          "name": "_goal",
          "type": "uint256"
        },
        {
          "name": "_endTimestamp",
          "type": "uint256"
        }
      ],
      "payable": false,
      "stateMutability": "nonpayable",
      "type": "constructor"
    },
    {
      "constant": false,
      "inputs": [],
      "name": "invest",
      "outputs": [],
      "payable": true,
      "stateMutability": "payable",
      "type": "function"
    },
    {
      "constant": false,
      "inputs": [],
      "name": "claimFunds",
      "outputs": [],
      "payable": false,
      "stateMutability": "nonpayable",
      "type": "function"
    },
    {
      "constant": false,
      "inputs": [],
      "name": "refund",
      "outputs": [],
      "payable": false,
      "stateMutability": "nonpayable",
      "type": "function"
    }
  ],
  "bytecode": "0x608060405234801561001057600080fd5b506040516080806107778339810180604052810190808051906020019092919080519060200190929190805190602001909291908051906020019092919050505060008473ffffffffffffffffffffffffffffffffffffffff16146100755783610077565b335b6000806101000a81548173ffffffffffffffffffffffffffffffffffffffff021916908373ffffffffffffffffffffffffffffffffffffffff16021790555082600160006101000a81548173ffffffffffffffffffffffffffffffffffffffff021916908373ffffffffffffffffffffffffffffffffffffffff16021790555081600281905550806003819055505050505061065f806101186000396000f300608060405260043610610078576000357c0100000000000000000000000000000000000000000000000000000000900463ffffffff168063401938831461007d578063590e1ae3146100a857806396b98862146100bf578063a85adeab14610116578063ac30777314610141578063e8b5e51f14610158575b600080fd5b34801561008957600080fd5b50610092610162565b6040518082815260200191505060405180910390f35b3480156100b457600080fd5b506100bd610168565b005b3480156100cb57600080fd5b50610100600480360381019080803573ffffffffffffffffffffffffffffffffffffffff169060200190929190505050610333565b6040518082815260200191505060405180910390f35b34801561012257600080fd5b5061012b61034b565b6040518082815260200191505060405180910390f35b34801561014d57600080fd5b50610156610351565b005b610160610505565b005b60025481565b6000600354600160009054906101000a900473ffffffffffffffffffffffffffffffffffffffff1673ffffffffffffffffffffffffffffffffffffffff1663557ed1ba6040518163ffffffff167c0100000000000000000000000000000000000000000000000000000000028152600401602060405180830381600087803b1580156101f357600080fd5b505af1158015610207573d6000803e3d6000fd5b505050506040513d602081101561021d57600080fd5b81019080805190602001909291905050501015151561023b57600080fd5b6002543073ffffffffffffffffffffffffffffffffffffffff163110151561026257600080fd5b600460003373ffffffffffffffffffffffffffffffffffffffff1673ffffffffffffffffffffffffffffffffffffffff1681526020019081526020016000205490506000600460003373ffffffffffffffffffffffffffffffffffffffff1673ffffffffffffffffffffffffffffffffffffffff168152602001908152602001600020819055503373ffffffffffffffffffffffffffffffffffffffff166108fc829081150290604051600060405180830381858888f1935050505015801561032f573d6000803e3d6000fd5b5050565b60046020528060005260406000206000915090505481565b60035481565b600354600160009054906101000a900473ffffffffffffffffffffffffffffffffffffffff1673ffffffffffffffffffffffffffffffffffffffff1663557ed1ba6040518163ffffffff167c0100000000000000000000000000000000000000000000000000000000028152600401602060405180830381600087803b1580156103da57600080fd5b505af11580156103ee573d6000803e3d6000fd5b505050506040513d602081101561040457600080fd5b81019080805190602001909291905050501015151561042257600080fd5b6002543073ffffffffffffffffffffffffffffffffffffffff16311015151561044a57600080fd5b6000809054906101000a900473ffffffffffffffffffffffffffffffffffffffff1673ffffffffffffffffffffffffffffffffffffffff163373ffffffffffffffffffffffffffffffffffffffff161415156104a557600080fd5b3373ffffffffffffffffffffffffffffffffffffffff166108fc3073ffffffffffffffffffffffffffffffffffffffff16319081150290604051600060405180830381858888f19350505050158015610502573d6000803e3d6000fd5b50565b600354600160009054906101000a900473ffffffffffffffffffffffffffffffffffffffff1673ffffffffffffffffffffffffffffffffffffffff1663557ed1ba6040518163ffffffff167c0100000000000000000000000000000000000000000000000000000000028152600401602060405180830381600087803b15801561058e57600080fd5b505af11580156105a2573d6000803e3d6000fd5b505050506040513d60208110156105b857600080fd5b81019080805190602001909291905050501015156105d557600080fd5b6000341115156105e457600080fd5b34600460003373ffffffffffffffffffffffffffffffffffffffff1673ffffffffffffffffffffffffffffffffffffffff168152602001908152602001600020600082825401925050819055505600a165627a7a7230582012ad39c9525c6204e58edf15b52c55c57f9ad06017342634dcec3b4907f58f530029",
  "source": "pragma solidity ^0.4.24;\n\nimport \"./Timer.sol\";\n\n/// This contract represents the most simple crowdfunding campaign.\n/// This contract does not protect investors from not receiving goods\n/// they were promised from the crowdfunding owner. This kind of contract\n/// might be suitable for campaigns that do not promise anything to the\n/// investors except that they will start working on the project.\n/// (e.g. almost all blockchain spinoffs.)\ncontract Crowdfunding {\n\n    address private owner;\n\n    Timer private timer;\n\n    uint256 public goal;\n\n    uint256 public endTimestamp;\n\n    mapping (address => uint256) public investments;\n\n    constructor(\n        address _owner,\n        Timer _timer,\n        uint256 _goal,\n        uint256 _endTimestamp\n    ) public {\n        owner = _owner == 0 ? msg.sender : _owner;\n        timer = _timer;\n        goal = _goal;\n        endTimestamp = _endTimestamp;\n    }\n\n    function invest() public payable {\n        require(timer.getTime() < endTimestamp);\n        require(msg.value > 0);\n\n        investments[msg.sender] += msg.value;\n    }\n\n    function claimFunds() public {\n        require(timer.getTime() >= endTimestamp);\n        require(address(this).balance >= goal);\n        require(msg.sender == owner);\n\n        msg.sender.transfer(address(this).balance);\n    }\n\n    function refund() public {\n        require(timer.getTime() >= endTimestamp);\n        require(address(this).balance < goal);\n\n        uint256 amount = investments[msg.sender];\n        investments[msg.sender] = 0;\n        msg.sender.transfer(amount);\n    }\n}\n",
  "sourcePath": "/Users/debugginator/IdeaProjects/kriptovalute/nix-lab2/contracts/Crowdfunding.sol",
  "compiler": {
    "name": "solc",
    "version": "0.4.26+commit.4563c3fc.Emscripten.clang"
  },
  "schemaVersion": "2.0.3",
  "updatedAt": "2019-12-15T15:55:53.879Z"
}