{
  "contractName": "DutchAuction",
  "abi": [
    {
      "constant": false,
      "inputs": [],
      "name": "getHighestBidder",
      "outputs": [
        {
          "name": "",
          "type": "address"
        }
      ],
      "payable": false,
      "stateMutability": "nonpayable",
      "type": "function"
    },
    {
      "constant": false,
      "inputs": [],
      "name": "settle",
      "outputs": [],
      "payable": false,
      "stateMutability": "nonpayable",
      "type": "function"
    },
    {
      "constant": true,
      "inputs": [],
      "name": "time",
      "outputs": [
        {
          "name": "",
          "type": "uint256"
        }
      ],
      "payable": false,
      "stateMutability": "view",
      "type": "function"
    },
    {
      "constant": true,
      "inputs": [],
      "name": "initialPrice",
      "outputs": [
        {
          "name": "",
          "type": "uint256"
        }
      ],
      "payable": false,
      "stateMutability": "view",
      "type": "function"
    },
    {
      "constant": true,
      "inputs": [],
      "name": "priceDecrement",
      "outputs": [
        {
          "name": "",
          "type": "uint256"
        }
      ],
      "payable": false,
      "stateMutability": "view",
      "type": "function"
    },
    {
      "constant": false,
      "inputs": [],
      "name": "refund",
      "outputs": [],
      "payable": false,
      "stateMutability": "nonpayable",
      "type": "function"
    },
    {
      "constant": true,
      "inputs": [],
      "name": "biddingPeriod",
      "outputs": [
        {
          "name": "",
          "type": "uint256"
        }
      ],
      "payable": false,
      "stateMutability": "view",
      "type": "function"
    },
    {
      "inputs": [
        {
          "name": "_sellerAddress",
          "type": "address"
        },
        {
          "name": "_judgeAddress",
          "type": "address"
        },
        {
          "name": "_timer",
          "type": "address"
        },
        {
          "name": "_initialPrice",
          "type": "uint256"
        },
        {
          "name": "_biddingPeriod",
          "type": "uint256"
        },
        {
          "name": "_priceDecrement",
          "type": "uint256"
        }
      ],
      "payable": false,
      "stateMutability": "nonpayable",
      "type": "constructor"
    },
    {
      "constant": false,
      "inputs": [],
      "name": "bid",
      "outputs": [],
      "payable": true,
      "stateMutability": "payable",
      "type": "function"
    }
  ],
  "bytecode": "0x608060405234801561001057600080fd5b5060405160c08061074e833981018060405281019080805190602001909291908051906020019092919080519060200190929190805190602001909291908051906020019092919080519060200190929190505050858585806000806101000a81548173ffffffffffffffffffffffffffffffffffffffff021916908373ffffffffffffffffffffffffffffffffffffffff16021790555081600160006101000a81548173ffffffffffffffffffffffffffffffffffffffff021916908373ffffffffffffffffffffffffffffffffffffffff16021790555082600260006101000a81548173ffffffffffffffffffffffffffffffffffffffff021916908373ffffffffffffffffffffffffffffffffffffffff160217905550600073ffffffffffffffffffffffffffffffffffffffff16600260009054906101000a900473ffffffffffffffffffffffffffffffffffffffff1673ffffffffffffffffffffffffffffffffffffffff1614156101c35733600260006101000a81548173ffffffffffffffffffffffffffffffffffffffff021916908373ffffffffffffffffffffffffffffffffffffffff1602179055505b6000600360146101000a81548160ff021916908360028111156101e257fe5b0217905550505050826004819055508160058190555080600681905550610216610232640100000000026401000000009004565b60088190555081600854016007819055505050505050506102f9565b60008060009054906101000a900473ffffffffffffffffffffffffffffffffffffffff1673ffffffffffffffffffffffffffffffffffffffff1663557ed1ba6040518163ffffffff167c0100000000000000000000000000000000000000000000000000000000028152600401602060405180830381600087803b1580156102b957600080fd5b505af11580156102cd573d6000803e3d6000fd5b505050506040513d60208110156102e357600080fd5b8101908080519060200190929190505050905090565b610446806103086000396000f30060806040526004361061008d576000357c0100000000000000000000000000000000000000000000000000000000900463ffffffff1680623495a41461009257806311da60b4146100e957806316ada547146101005780631998aeef1461012b5780631d0806ae1461013557806326cddbfb14610160578063590e1ae31461018b5780635f8909bd146101a2575b600080fd5b34801561009e57600080fd5b506100a76101cd565b604051808273ffffffffffffffffffffffffffffffffffffffff1673ffffffffffffffffffffffffffffffffffffffff16815260200191505060405180910390f35b3480156100f557600080fd5b506100fe6101f7565b005b34801561010c57600080fd5b50610115610265565b6040518082815260200191505060405180910390f35b61013361032c565b005b34801561014157600080fd5b5061014a61039a565b6040518082815260200191505060405180910390f35b34801561016c57600080fd5b506101756103a0565b6040518082815260200191505060405180910390f35b34801561019757600080fd5b506101a06103a6565b005b3480156101ae57600080fd5b506101b7610414565b6040518082815260200191505060405180910390f35b6000600360009054906101000a900473ffffffffffffffffffffffffffffffffffffffff16905090565b6040517f08c379a00000000000000000000000000000000000000000000000000000000081526004018080602001828103825260138152602001807f4e6f742079657420696d706c656d656e7465640000000000000000000000000081525060200191505060405180910390fd5b60008060009054906101000a900473ffffffffffffffffffffffffffffffffffffffff1673ffffffffffffffffffffffffffffffffffffffff1663557ed1ba6040518163ffffffff167c0100000000000000000000000000000000000000000000000000000000028152600401602060405180830381600087803b1580156102ec57600080fd5b505af1158015610300573d6000803e3d6000fd5b505050506040513d602081101561031657600080fd5b8101908080519060200190929190505050905090565b6040517f08c379a00000000000000000000000000000000000000000000000000000000081526004018080602001828103825260138152602001807f4e6f742079657420696d706c656d656e7465640000000000000000000000000081525060200191505060405180910390fd5b60045481565b60065481565b6040517f08c379a00000000000000000000000000000000000000000000000000000000081526004018080602001828103825260138152602001807f4e6f742079657420696d706c656d656e7465640000000000000000000000000081525060200191505060405180910390fd5b600554815600a165627a7a723058202f349e46b20a59b904cf281024cd561f6ec03c06d606dd9f0aa6aff4dd54ebf30029",
  "source": "pragma solidity ^0.4.24;\n\nimport \"./Auction.sol\";\n\ncontract DutchAuction is Auction {\n\n    uint public initialPrice;\n    uint public biddingPeriod;\n    uint public priceDecrement;\n\n    uint internal auctionEnd;\n    uint internal auctionStart;\n\n    /// Creates the DutchAuction contract.\n    ///\n    /// @param _sellerAddress Address of the seller.\n    /// @param _judgeAddress Address of the judge.\n    /// @param _timer Timer reference\n    /// @param _initialPrice Start price of dutch auction.\n    /// @param _biddingPeriod Number of time units this auction lasts.\n    /// @param _priceDecrement Rate at which price is lowered for each time unit\n    ///                        following linear decay rule.\n    constructor(\n        address _sellerAddress,\n        address _judgeAddress, // address(0) is there if there no judge\n        Timer _timer,\n        uint _initialPrice,\n        uint _biddingPeriod,\n        uint _priceDecrement\n    ) public Auction(_sellerAddress, _judgeAddress, _timer) {\n        initialPrice = _initialPrice;\n        biddingPeriod = _biddingPeriod;\n        priceDecrement = _priceDecrement;\n        auctionStart = time();\n        auctionEnd = auctionStart + _biddingPeriod;\n    }\n\n    /// In a Dutch auction, the winner is the first person who bids with\n    /// a price higher than the current price.\n    /// This method should only be called while the auction is active.\n    function bid() public payable {\n        // TODO Your code here\n        revert(\"Not yet implemented\");\n    }\n}\n",
  "sourcePath": "/Users/debugginator/IdeaProjects/kriptovalute/nix-lab2/contracts/DutchAuction.sol",
  "compiler": {
    "name": "solc",
    "version": "0.4.26+commit.4563c3fc.Emscripten.clang"
  },
  "schemaVersion": "2.0.3",
  "updatedAt": "2019-12-15T15:55:53.879Z"
}