{
  "contractName": "EnglishAuction",
  "abi": [
    {
      "constant": false,
      "inputs": [],
      "name": "getHighestBidder",
      "outputs": [
        {
          "name": "",
          "type": "address"
        }
      ],
      "payable": false,
      "stateMutability": "nonpayable",
      "type": "function"
    },
    {
      "constant": false,
      "inputs": [],
      "name": "settle",
      "outputs": [],
      "payable": false,
      "stateMutability": "nonpayable",
      "type": "function"
    },
    {
      "constant": true,
      "inputs": [],
      "name": "time",
      "outputs": [
        {
          "name": "",
          "type": "uint256"
        }
      ],
      "payable": false,
      "stateMutability": "view",
      "type": "function"
    },
    {
      "constant": false,
      "inputs": [],
      "name": "refund",
      "outputs": [],
      "payable": false,
      "stateMutability": "nonpayable",
      "type": "function"
    },
    {
      "inputs": [
        {
          "name": "_sellerAddress",
          "type": "address"
        },
        {
          "name": "_judgeAddress",
          "type": "address"
        },
        {
          "name": "_timer",
          "type": "address"
        },
        {
          "name": "_initialPrice",
          "type": "uint256"
        },
        {
          "name": "_biddingPeriod",
          "type": "uint256"
        },
        {
          "name": "_minimumPriceIncrement",
          "type": "uint256"
        }
      ],
      "payable": false,
      "stateMutability": "nonpayable",
      "type": "constructor"
    },
    {
      "constant": false,
      "inputs": [],
      "name": "bid",
      "outputs": [],
      "payable": true,
      "stateMutability": "payable",
      "type": "function"
    }
  ],
  "bytecode": "0x608060405234801561001057600080fd5b5060405160c08061068f833981018060405281019080805190602001909291908051906020019092919080519060200190929190805190602001909291908051906020019092919080519060200190929190505050858585806000806101000a81548173ffffffffffffffffffffffffffffffffffffffff021916908373ffffffffffffffffffffffffffffffffffffffff16021790555081600160006101000a81548173ffffffffffffffffffffffffffffffffffffffff021916908373ffffffffffffffffffffffffffffffffffffffff16021790555082600260006101000a81548173ffffffffffffffffffffffffffffffffffffffff021916908373ffffffffffffffffffffffffffffffffffffffff160217905550600073ffffffffffffffffffffffffffffffffffffffff16600260009054906101000a900473ffffffffffffffffffffffffffffffffffffffff1673ffffffffffffffffffffffffffffffffffffffff1614156101c35733600260006101000a81548173ffffffffffffffffffffffffffffffffffffffff021916908373ffffffffffffffffffffffffffffffffffffffff1602179055505b6000600360146101000a81548160ff021916908360028111156101e257fe5b0217905550505050826005819055508160068190555080600881905550610216610227640100000000026401000000009004565b6007819055505050505050506102ee565b60008060009054906101000a900473ffffffffffffffffffffffffffffffffffffffff1673ffffffffffffffffffffffffffffffffffffffff1663557ed1ba6040518163ffffffff167c0100000000000000000000000000000000000000000000000000000000028152600401602060405180830381600087803b1580156102ae57600080fd5b505af11580156102c2573d6000803e3d6000fd5b505050506040513d60208110156102d857600080fd5b8101908080519060200190929190505050905090565b610392806102fd6000396000f30060806040526004361061006c576000357c0100000000000000000000000000000000000000000000000000000000900463ffffffff1680623495a41461007157806311da60b4146100c857806316ada547146100df5780631998aeef1461010a578063590e1ae314610114575b600080fd5b34801561007d57600080fd5b5061008661012b565b604051808273ffffffffffffffffffffffffffffffffffffffff1673ffffffffffffffffffffffffffffffffffffffff16815260200191505060405180910390f35b3480156100d457600080fd5b506100dd610155565b005b3480156100eb57600080fd5b506100f46101c3565b6040518082815260200191505060405180910390f35b61011261028a565b005b34801561012057600080fd5b506101296102f8565b005b6000600360009054906101000a900473ffffffffffffffffffffffffffffffffffffffff16905090565b6040517f08c379a00000000000000000000000000000000000000000000000000000000081526004018080602001828103825260138152602001807f4e6f742079657420696d706c656d656e7465640000000000000000000000000081525060200191505060405180910390fd5b60008060009054906101000a900473ffffffffffffffffffffffffffffffffffffffff1673ffffffffffffffffffffffffffffffffffffffff1663557ed1ba6040518163ffffffff167c0100000000000000000000000000000000000000000000000000000000028152600401602060405180830381600087803b15801561024a57600080fd5b505af115801561025e573d6000803e3d6000fd5b505050506040513d602081101561027457600080fd5b8101908080519060200190929190505050905090565b6040517f08c379a00000000000000000000000000000000000000000000000000000000081526004018080602001828103825260138152602001807f4e6f742079657420696d706c656d656e7465640000000000000000000000000081525060200191505060405180910390fd5b6040517f08c379a00000000000000000000000000000000000000000000000000000000081526004018080602001828103825260138152602001807f4e6f742079657420696d706c656d656e7465640000000000000000000000000081525060200191505060405180910390fd00a165627a7a72305820ada602ed0cb763f924bded50249c81eafa73baa473fa0fc78771e75476070e9b0029",
  "source": "pragma solidity ^0.4.24;\n\nimport \"./Auction.sol\";\n\ncontract EnglishAuction is Auction {\n\n    uint internal highestBid;\n    uint internal initialPrice;\n    uint internal biddingPeriod;\n    uint internal lastBidTimestamp;\n    uint internal minimumPriceIncrement;\n\n    address internal highestBidder;\n\n    constructor(\n        address _sellerAddress,\n        address _judgeAddress,\n        Timer _timer,\n        uint _initialPrice,\n        uint _biddingPeriod,\n        uint _minimumPriceIncrement\n    ) public Auction(_sellerAddress, _judgeAddress, _timer) {\n        initialPrice = _initialPrice;\n        biddingPeriod = _biddingPeriod;\n        minimumPriceIncrement = _minimumPriceIncrement;\n        lastBidTimestamp = time();\n    }\n\n    function bid() public payable {\n        // TODO Your code here\n        revert(\"Not yet implemented\");\n    }\n}\n",
  "sourcePath": "/Users/debugginator/IdeaProjects/kriptovalute/nix-lab2/contracts/EnglishAuction.sol",
  "compiler": {
    "name": "solc",
    "version": "0.4.26+commit.4563c3fc.Emscripten.clang"
  },
  "schemaVersion": "2.0.3",
  "updatedAt": "2019-12-15T15:55:53.880Z"
}