{
  "contractName": "MockTimer",
  "abi": [
    {
      "inputs": [
        {
          "name": "_startTime",
          "type": "uint256"
        }
      ],
      "payable": false,
      "stateMutability": "nonpayable",
      "type": "constructor"
    },
    {
      "constant": true,
      "inputs": [],
      "name": "getTime",
      "outputs": [
        {
          "name": "",
          "type": "uint256"
        }
      ],
      "payable": false,
      "stateMutability": "view",
      "type": "function"
    },
    {
      "constant": false,
      "inputs": [],
      "name": "resetTime",
      "outputs": [],
      "payable": false,
      "stateMutability": "nonpayable",
      "type": "function"
    },
    {
      "constant": false,
      "inputs": [
        {
          "name": "_newTime",
          "type": "uint256"
        }
      ],
      "name": "setTime",
      "outputs": [],
      "payable": false,
      "stateMutability": "nonpayable",
      "type": "function"
    },
    {
      "constant": false,
      "inputs": [
        {
          "name": "_offset",
          "type": "uint256"
        }
      ],
      "name": "offsetTime",
      "outputs": [],
      "payable": false,
      "stateMutability": "nonpayable",
      "type": "function"
    }
  ],
  "bytecode": "0x608060405234801561001057600080fd5b506040516020806103058339810180604052810190808051906020019092919050505033600260006101000a81548173ffffffffffffffffffffffffffffffffffffffff021916908373ffffffffffffffffffffffffffffffffffffffff160217905550806000819055508060018190555050610273806100926000396000f300608060405260043610610062576000357c0100000000000000000000000000000000000000000000000000000000900463ffffffff1680633beb26c414610067578063557ed1ba1461009457806365a114f1146100bf578063de858cb8146100d6575b600080fd5b34801561007357600080fd5b5061009260048036038101908080359060200190929190505050610103565b005b3480156100a057600080fd5b506100a9610169565b6040518082815260200191505060405180910390f35b3480156100cb57600080fd5b506100d4610172565b005b3480156100e257600080fd5b50610101600480360381019080803590602001909291905050506101d9565b005b600260009054906101000a900473ffffffffffffffffffffffffffffffffffffffff1673ffffffffffffffffffffffffffffffffffffffff163373ffffffffffffffffffffffffffffffffffffffff1614151561015f57600080fd5b8060008190555050565b60008054905090565b600260009054906101000a900473ffffffffffffffffffffffffffffffffffffffff1673ffffffffffffffffffffffffffffffffffffffff163373ffffffffffffffffffffffffffffffffffffffff161415156101ce57600080fd5b600154600081905550565b600260009054906101000a900473ffffffffffffffffffffffffffffffffffffffff1673ffffffffffffffffffffffffffffffffffffffff163373ffffffffffffffffffffffffffffffffffffffff1614151561023557600080fd5b806000808282540192505081905550505600a165627a7a723058201132211a92c8d25eab5e361ca06a010d98fdacf03d7d79b89cf42f56d45f0a8a0029",
  "source": "pragma solidity ^0.4.24;\n\n// Simple contract that serves as time provider.\ninterface Timer {\n\n    function getTime() external view returns (uint);\n}\n\n/// Implementation of Timer contract that provides the user with\n/// system time (UNIX time).\ncontract UnixTimer is Timer {\n\n    function getTime() external view returns (uint) {\n        return now;\n    }\n}\n\n/// Implementation of Timer contract which allows user to programmatically\n/// manipulate time. MockTimes is used by other objects which depend on\n/// time and in order to test the implementation of those contracts it\n/// is useful to be able to set the time as we like. This pattern of mocking\n/// a component should be always performed as it provides the ability to\n/// test components independently of each other, meaning that tests are\n/// easier to write and reason about. You may notice that you already\n/// have all tests written out for each contract you need to implement.\n/// This way of programming (first write tests then implementation) is\n/// called Test Driven Development and it fits into smart contract programming\n/// really well. This is because smart contracts are in essence just state machines,\n/// and usually they do not have too many states - so it is easy to write tests\n/// for them, and sometimes possible to write a test for all possible states.\n/// (You should strive to write tests that test all possible states and\n/// transitions, especially when writing smart contracts which can not have\n/// a bug or security exploit).\ncontract MockTimer is Timer {\n\n    uint time;\n    uint startTime;\n    address owner;\n\n    // constructor\n    constructor(uint _startTime) public {\n        owner = msg.sender;\n        time = _startTime;\n        startTime = _startTime;\n    }\n\n    function getTime() public view returns (uint) {\n        return time;\n    }\n\n    function resetTime() public ownerOnly {\n        time = startTime;\n    }\n\n    function setTime(uint _newTime) public ownerOnly {\n        time = _newTime;\n    }\n\n    function offsetTime(uint _offset) public ownerOnly {\n        time += _offset;\n    }\n    \n    modifier ownerOnly {\n        if (msg.sender != owner) {\n            revert();\n        }\n        _;\n    }\n}\n",
  "sourcePath": "/Users/debugginator/IdeaProjects/kriptovalute/nix-lab2/contracts/Timer.sol",
  "compiler": {
    "name": "solc",
    "version": "0.4.26+commit.4563c3fc.Emscripten.clang"
  },
  "schemaVersion": "2.0.3",
  "updatedAt": "2019-12-15T15:55:53.880Z"
}