{
  "contractName": "TreasureHuntSolution",
  "abi": [
    {
      "constant": true,
      "inputs": [],
      "name": "getSolution",
      "outputs": [
        {
          "name": "",
          "type": "uint256"
        }
      ],
      "payable": false,
      "stateMutability": "pure",
      "type": "function"
    }
  ],
  "bytecode": "0x6080604052348015600f57600080fd5b5060a08061001e6000396000f300608060405260043610603f576000357c0100000000000000000000000000000000000000000000000000000000900463ffffffff16806350592adf146044575b600080fd5b348015604f57600080fd5b506056606c565b6040518082815260200191505060405180910390f35b6000809050905600a165627a7a723058206544cf8b593255348c035a302daa3f3955e72d6850043a3f16be3706cb8da0ed0029",
  "source": "pragma solidity ^0.4.24;\n\ncontract TreasureHuntSolution {\n\n    function getSolution() public pure returns (uint256) {\n        // TODO Enter correct solution.\n        return 0;\n    }\n}\n\ncontract TreasureHunt {\n\n    uint256 secret;\n    uint256 lastTimePlayed;\n\n    address owner;\n    uint256 price; // This is how much it costs to open treasure\n\n    PlayerGuess[] guesses;\n\n    struct PlayerGuess {\n        address playerAddress;\n        uint256 guess;\n    }\n\n    function() public payable {}\n\n    constructor(uint256 _price) public payable {\n        owner = msg.sender;\n        price = _price;\n        lastTimePlayed = 0;\n        string memory message = \"The answer to life,  the universe and everything.\";\n        bytes memory encodedMsg = bytes(message);\n        secret = uint(encodedMsg[42]) ^ 83;\n    }\n\n    function openTreasure(uint256 guess) public payable {\n        require(msg.value >= price);\n\n        // Log player game\n        PlayerGuess playerGuess;\n        playerGuess.playerAddress = msg.sender;\n        playerGuess.guess = guess;\n        guesses.push(playerGuess);\n\n        if (guess == secret) {\n            // You guessed correctly :D\n            msg.sender.transfer(address(this).balance);\n        }\n\n        lastTimePlayed = now;\n    }\n\n    function kill() public {\n        if (msg.sender == owner) {\n            // Redeem funds from contract and remove it from the blockchain.\n            selfdestruct(msg.sender);\n        }\n    }\n}",
  "sourcePath": "/Users/debugginator/IdeaProjects/kriptovalute/nix-lab2/contracts/TreasureHunt.sol",
  "compiler": {
    "name": "solc",
    "version": "0.4.26+commit.4563c3fc.Emscripten.clang"
  },
  "schemaVersion": "2.0.3",
  "updatedAt": "2019-12-15T15:55:53.881Z"
}